:020000040000FA
:020000000F28C7
:040002000034003492
:08000800A0000308A1008B1801
:100010002C208B10A1088300A00E200E09001820B0
:10002000272013201228831607309F008312080010
:10003000831688018501013086008701013089001F
:1000400083128501860187018801890108008312D6
:100050008B108B170B160800402009183128392007
:10006000080033200800243086007C308700081503
:1000700008007C308600443087007C30880008000F
:080080008601870188010800D8
:02400E00323F3F
:00000001FF
