:020000040000FA
:02000000EB28EB
:040002000034003492
:06000A00B4008A01340875
:10001000820049344E3449345434493441344C34E8
:1000200049345A3449344E3447342E342E342E3425
:1000300000344E344F3420345234453450344F342D
:1000400052345434003445344E34543445345234EC
:10005000203432343034593459344D344D344434EE
:1000600044343A34003445344E34543445345234F4
:100070002034683468346D346D34733473343A34F6
:1000800000343234303400342D3400343A34003407
:100090004C344F344734203445344E345434523485
:1000A00059343A34203400345334543441345234C3
:1000B00054343A3420340034463449344E344934CC
:1000C000533448343A3420340034523455344E34A6
:1000D000543449344D3445343A3420340034733484
:1000E000003454344F34543441344C343A34203492
:1000F000003450344134533453343A3420340034CF
:1001000020344634413449344C343A3420340034B9
:100110004C34413459344F34553454343A34003427
:10012000203454344F3450342034313420340034AB
:10013000203432342034003420343334203400343A
:10014000203442344F345434203434342034003496
:10015000523455344E344E3449344E3447340034DE
:100160002E34003449344E345334503445344334FF
:10017000543449344F344E342034463449344E34A8
:10018000003445344D3445345234473445344E34CC
:10019000433459342034533454344F3450340034BD
:1001A0000034583446344634503458344634463497
:1001B000503431343234333400343434353436341A
:1001C00000343734383439340034003430340034B7
:0601D00000342F3400345E
:0A01D600BA21D121850186018701BD
:1001E000880189018D270A232E218618FA20643080
:1001F0005327F428060E0F39F40001308A007408E2
:10020000043E03188A0A820017291B291F29142972
:10021000212923292529142928292B29142914299E
:1002200014291429142914298618142908000030C7
:10023000E700DE2514290130E700DE251429091125
:100240001429D6251429CE2514290710871014291E
:100250000130C92514290030C9251429B030AC2536
:100260000530B8002330B500B030B6003608840041
:100270000008B700350884003708BB000330BC0015
:100280006B24B0304124B0304124B0304124040804
:10029000B500B60AB60A360884000008B70035086B
:1002A00084003708BB000330BC006B24B03041240D
:1002B000B0304124B03041240408B500B60AB60A73
:1002C000360884000008B700350884003708BB00F2
:1002D0000330BC006B24B0304124B0304124B03036
:1002E00041240408B500BA279824C4272330B50058
:1002F000B030B600B60A360884000008B7003508EA
:100300008400B0304124B0304124B030412437085B
:10031000BB000330BC006B24B0304124B03041241A
:10032000B03041240408B500B60AB60A3608840085
:100330000008B700350884003708BB000330BC0054
:100340006B240408B5009824C92708002A271F1524
:100350001F19A8291E08233084001E08BB00013085
:10036000BC006B24BA2798246430B4003527B40B42
:10037000B629A6298B0183128101F30183168530EA
:1003800081002F308500F2308600A03087000030D9
:1003900088000030890002309F00831281309F0066
:1003A00008000030A000A101A201E801E90101302C
:1003B000E7000800850186018701880189018D27F2
:1003C0000A23D625E701DE25DE25DE25DE250130E0
:1003D000E70008000130A000C001C101C201C30153
:1003E000C401C501BA272330840023304124982456
:1003F000C42723308400413041249824B601861C50
:10040000FF29060E0F39D93E0520003E03193B2A6D
:10041000B500CE273030B5023608F40002308A002D
:100420007408153E03188A0A82001B2A222A262AEB
:100430002D2A312A382A3508EA000A301E27C0073B
:10044000B60A3B2A3508C007B60A3B2A3508EA0037
:100450000A301E27C107B60A3B2A3508C107B60A6B
:100460003B2A3508EA000A301E27C207B60A3B2A93
:100470003508C207B60A86183B2A06303602031C26
:10048000FF29BA2723308400333041249824C4271D
:10049000B601861C492A060E0F39D93E0520003EBA
:1004A0000319852AB500CE273030B5023608F4008E
:1004B00002308A0074085F3E03188A0A8200652AA7
:1004C0006C2A702A772A7B2A822A3508EA000A30A9
:1004D0001E27C307B60A852A3508C307B60A852A28
:1004E0003508EA000A301E27C407B60A852A3508EF
:1004F000C407B60A852A3508EA000A301E27C50750
:10050000B60A852A3508C507B60A8618852A063030
:100510003602031C492A0800060E0F39F400023087
:100520008A007408963E03188A0A8200AA2AAE2A14
:10053000A62AA62AA62AA62AA62AA62ADF2AB52AF3
:10054000A62A032BE72ACB2AA62AF02A8618A62A4F
:100550000A2308000230A000A201A62A0430E808FD
:1005600003190330A000A201A62AE8080319AE2A45
:10057000680869020C3EEA000C3011276A08210263
:100580000319AE2A21030C3EEA000C3011276A0839
:10059000A1006626AE2AE8080319AE2A69030C3EBC
:1005A000EA000C3011276A0821020319AE2A210A39
:1005B000EA000C3011276A08A1006626AE2A043032
:1005C0002002031DA62AA208031DA203A62A0430A6
:1005D0002002031DA62A09302202031DA20AA62A10
:1005E0000530A000A201BA2723308400A83041249E
:1005F0009824A0240630A000A2010A230430A00001
:10060000A2010A230800A62AEC080319092B0A23D1
:10061000EC0108002008053C0319080022081823F3
:10062000BA279824220A1823C4279824C927080027
:10063000B500233084002008F40003308A007408D9
:10064000243E03188A0A82002B2B362B392B442B8D
:100650004F2B632B6E2B3508F40003308A0074088F
:10066000343E03188A0A8200792B7C2BD030412437
:1006700008003508F40003308A007408423E03186D
:100680008A0A82007F2B952B3508F40003308A00FC
:1006900074084D3E03188A0A8200A92BAC2B35083A
:1006A000F40003308A007408583E03188A0A820056
:1006B000AF2BCA2BE02BF62B002C082C172C1A2C56
:1006C0001F2C242C292C3508F40003308A007408D0
:1006D0006C3E03188A0A82002E2C312C3508F40057
:1006E00003308A007408773E03188A0A8200342C8B
:1006F000372C093041240800D03041240800413013
:1007000041244008BB000230BC006B24443041242B
:100710004108BB000230BC006B2444304124420835
:10072000BB000230BC006B2408004308BB00023051
:10073000BC006B24463041244408BB000230BC009E
:100740006B24463041244508BB000230BC006B24BA
:100750000800193041240800D030412408004830F6
:100760004124690868022107013E0C3EEA000C3072
:1007700011276A0803190C30B6003608BB00023096
:10078000BC006B24E93041246808BB000230BC0087
:100790006B240800543041244908BB000230BC00DF
:1007A0006B24463041244A08BB000230BC006B2455
:1007B000463041244B08BB000230BC006B240800CB
:1007C0005C3041244C08BB000230BC006B24463036
:1007D00041244D08BB000230BC006B24463041244C
:1007E0004E08BB000230BC006B2408006530412479
:1007F0004F08BB000130BC006B246F30412408005F
:10080000713041245008BB000130BC006B2408004B
:10081000793041245108BB000130BC006B2480308A
:1008200041245208BB000130BC006B240800883012
:10083000412408009030412400304B2408009830B7
:10084000412401304B2408009C30412402304B24C9
:100850000800A030412403304B240800A830412474
:100860000800D03041240800B2304124080065302F
:1008700041244F08BB000130BC006B246F30412481
:100880000800BD003D08052080008008031908000D
:10089000840ABD0A422CB4005330B4080319532C07
:1008A000053EB40B502CB5000408B6000530B70067
:1008B00035088400D13000070520B40036088400D4
:1008C00034088000B50AB60AB70B582C36088400E5
:1008D0000030800008003B08EA0064301127031D47
:1008E000762C03303C02031C7B2C0030303E800011
:1008F000840A0330BC003B08EA00643011276A0810
:10090000EA000A301127031D8A2C02303C02031C26
:100910008D2C0030303E8000840A3B08EA000A300B
:1009200011276A08303E8000840A003080000800E9
:1009300023308400000803190800CE27840A9A2C6B
:100940004008C6004108C7004208C8004308C90063
:100950004408CA004508CB00533084001430B4006A
:100960008001840AB40BB02C5330E7080319BC2C67
:10097000143EB40005303402BF000430BE00D00184
:10098000D101D2010B108B15B030AC25233084007F
:10099000B030412498240130C925B530AC25003051
:1009A000C9253F08B4001C30B70023250319052DC5
:1009B000CE25B530AC25B4005030B7002325D62560
:1009C000BA30AC2523308400B03041249824CE25A1
:1009D000D625BF30AC2523308400B0304124982484
:1009E0003F083A25003E0319052D0530E708031D91
:1009F000FB2CBF07FC2CBF02BE030319162DDE25FE
:100A000023308400B030412498240530E708031DCA
:100A10000B2DBF070C2DBF02BE030319162DDE25BB
:100A200023308400B03041249824CB2C8B1101302A
:100A3000E7064308CC004408CD004508CE009325C6
:100A40000E26A1000800B501B60134088400B530B7
:100A50003507840037080002031C322D3408840057
:100A60000014B60AB40AB50A05303502031C252D58
:100A700036080800B400B501B601B701B801B901E4
:100A8000BA013408840000300018FF30B600BA30D4
:100A90003507840050300002031C502DFF30512DCB
:100AA0000030B700B0303507840005300007BA00C9
:100AB000BF30350784003A080002031C612DFF3067
:100AC000622D0030B80034088400800136083704F5
:100AD000380403196E2D0014D00AB90A3808FF3AF9
:100AE0003705BA003708FF3A360538053A040319C6
:100AF0007B2D8014D10A3708FF3A3805BA00360832
:100B0000FF3A37053A04031D0015B40AB50A05304B
:100B10003502031C412D51085002D2000330390226
:100B2000031C003401344A084D020318982D3C3E42
:100B3000B4004B084E0203189F2D3C3EB403B4088A
:100B40000319A72D3C3E0318A92DB40BA22DCF00ED
:100B50000800FF30CF0008008400B4010530B50064
:100B6000C7309F0534089F040430B60080012A274F
:100B70001F151F19B92D1E08FF3AEA00043011276E
:100B80008007B60BB72D0830B407840AB50BB02D1B
:100B900008000711003E031D0715080009158710FE
:100BA00007141E306D2707100911080009150710DA
:100BB0008714871AD92D8710091108008810891405
:100BC00009151C30B4000630E708031DFE2D08107F
:100BD0000914871F0C2E532789108814871F0C2E89
:100BE000532709100814871F0C2E532788108914C7
:100BF000871F0C2E5327B40BE72D0C2E8910881459
:100C000053270810091453278810891453270910F3
:100C100008145327B40BFE2D091108006908EA00D7
:100C200006301127EA0080301E27103EB400690804
:100C3000EA00063011276A08EA0010301E27340740
:100C4000831784004F088000840A460E47078000FF
:100C5000840A48088000840A49088000840A4A08F7
:100C60008000840A4B088000840A0408B4005330D2
:100C7000B5001430B600350884008313000EB700A9
:100C800034088400831737088000B50AB6030319B7
:100C9000572E3508840083130008B70034088400F9
:100CA000831737088007B50AB40AB60B3B2E6908CC
:100CB000B400E90A0C306902031C0C3EE9000C3058
:100CC0006802031CE80A340883130800B500D00149
:100CD000D101EA0006301127EA0080301E27103EBD
:100CE000B4003508EA00063011276A08EA0010301F
:100CF0001E273407831784000008CF00840A000EE3
:100D00000F39C60000080F39C700840A0008C80060
:100D1000840A0008C900840A0008CA00840A00087E
:100D2000CB00840A0408B4005330B5001430B60078
:100D3000340884008317000E0F39B700350884008B
:100D40008313370880000018D00A8018D10AB50A2A
:100D5000B6030319BE2E34088400831700080F3928
:100D6000B700350884008313370880000018D00AC4
:100D70008018D10AB50AB40AB60B982E4908CC00DF
:100D80004A08CD004B08CE004F08EA003C3011273E
:100D9000CD074F08EA003C3011276A08CE073C30E7
:100DA0004E02031CD62E3C30CE02CD0A3C304D0202
:100DB000031CE32E3C30CD02CC0A18304C02031C3D
:100DC000E32E1830CC0251085002D20083130800E1
:100DD0008400800A3C300002031C08008001840368
:100DE000800A3C300002031C080080018403800A52
:100DF00018300002031C0800800108008400800AEB
:100E00001F300002031C08008001800A8403800A4E
:100E10000D300002031C08008001800A8403800A50
:100E20000800003E031403190800EB01EA02031C4A
:100E30001B2FEB0A162FEA076B0808000310EB00C4
:100E40000030EA08031908006B070318292FEA0B82
:100E5000242F080003138316A0002630A100A10B45
:100E60002F2F200883120000080003138316A2000E
:100E70006030A300000003138316A0002730A100F8
:100E8000A10B402F20088312000003138316A30B2D
:100E90003A2F0230A300A30B4B2F000000002208C2
:100EA00083120000080003138316A50035270313DF
:100EB0008316A50B562F8312000008000313831618
:100EC000A200F930A300FA30A1000000A10B652FA9
:100ED000A30B632F22088312080003138316A500B7
:100EE0005E2703138316A50B702F831200000800E2
:100EF00003138316A400C730A500352703138316F8
:100F0000A50B7D2F4630A5002A2703138316A50BBA
:100F1000842F2408831200000800831288153527C7
:100F200035273527352708113030F03988040F3838
:100F300088052A2788112A27881535272A27881106
:100F40002A2788152A272A272A2788112A27881539
:100F50002030F03988040F3888052A2788112A277D
:100F600088152830CE270F30CE270630CE27BA2757
:100F70000815080008110130CE272830F5002A276F
:100F8000F50BBF2F081508000811C030CE27081533
:100F900008000811D030CE2708150800F500F039F8
:100FA00088040F3888052A2788112A278815750E86
:100FB000F03988040F3888052A2788112A278815D0
:020FC000080027
:02400E00723FFF
:00000001FF
