:020000040000FA
:1000000001288B0183168501F23086008701880163
:1000100083128501860187018801F201E9214A21C5
:1000200011280030F200E9215C21A301030123081B
:10003000F120003A03191F287121A30A17285F2114
:10004000A30103012308FC20003A03192A28712187
:10005000A30A22289928E9215C21A301030123088E
:10006000C420003A031937287121A30A2F289921A7
:100070000430F200E9215C21A30103012308D3200D
:10008000003A031946287121A30A3E285F21A301E3
:1000900003012308FC20003A031951287121A30A07
:1000A000492899280830F200E9215C21A3010301C5
:1000B0002308E220003A031960287121A30A582876
:1000C0005F21A30103012308FC20003A03196B28D8
:1000D0007121A30A63289928E9215C21A301030166
:1000E0002308FF20003A031978287121A30A7028F9
:1000F00099210130F200E9215C21A30103012308C9
:100100001921003A031987287121A30A7F285F214A
:100110009928E9210230F2005C21A30103012308A0
:100120002B21003A031997287121A30A8F285F21F8
:100130009928E921861C9A28060E0F39A921711DDC
:10014000A2281128F11DA5282B28711EA8286C288B
:10015000F01FAB28B428711CAE28B928AF2807219E
:1001600071218618B1289928E921F21DB82838286C
:100170009928721CBC287928F21CBF288928721D76
:10018000C22852289928C32882074E346534773410
:1001900020346F34703465347234613474346934AB
:1001A0006F346E3400348207313473347434203445
:1001B0007034613474347434653472346E343A3467
:1001C00020340034820732346E3464342034703486
:1001D000613474347434653472346E343A34203497
:1001E000003482075234653461346C342034543422
:1001F00069346D346534003482073E34003482073C
:100200005234653470346F3472347434003482077D
:100210003134323433344134343435343634423486
:1002200037343834393443342A3430342334443482
:10023000003482074F34703465347234613474345E
:1002400069346F346E342034743469346D346534F9
:100250003A342034003482075034613474347434B6
:10026000653472346E3473343A3420340034820787
:1002700041346E3420344534723472346F34723405
:1002800020344F34633463347534723472346534DB
:10029000643400348312881580218021802133301A
:1002A000622132306221283062210F306221063013
:1002B0006221013062210800013062210800C03053
:1002C000622108000811A200F039880088158021F9
:1002D0008811220EF039880088158021881180212C
:1002E00008000815A400F039043E88008815802114
:1002F000240EF039043E88008815802188110800FA
:100300001430A100FF30A000A00B8429A10B82298A
:1003100008008830A500BD30A6000330A700A50B5B
:100320009229A60B9429A70B8F299629000000007B
:1003300008008830A500BD30A6000930A700A50B35
:10034000A229A60BA429A70B9F29A629000000001B
:100350000800A800A819B6292819C029A818D0296A
:100360002818B429F014E8297015E8292819C82993
:10037000A818DC292818BE29F017E8297114E829E3
:10038000A818D6292818C6297016E829F016E829D1
:10039000A818E2292818CE297117E8297014E8292D
:1003A0002818D429F015E8297115E8292818DA2920
:1003B0007017E829F115E8292818E029F114E8292F
:1003C0007116E8292818E629F117E829F116E82915
:0803D0000800F001F101080032
:0403D80000340034B9
:02400E00723FFF
:00000001FF
