:020000040000FA
:1000000001288B0183168501F23086008701880163
:10001000831285018601870188013B20F3010301DA
:1000200073082420003A031918286220F30A1028C4
:100030005020F301030173082E20003A03192328EE
:100040006220F30A1B282328820754346534733452
:10005000743469346E346734213400348207543484
:1000600065347334743469346E34673420345434F2
:1000700077346F3400348312881571207120712019
:100080003330532032305320283053200C3053204B
:10009000063053200130532008000130532008005F
:1000A000C030532008000811F200F039880088158C
:1000B00071208811720EF03988008815712088111E
:1000C000712008000815F400F039043E88008815F6
:1000D0007120740EF039043E880088157120881153
:1000E00008001430F100FF30F000F00B7528F10B20
:0400F0007328080069
:0400F40000340034A0
:02400E00723FFF
:00000001FF
