:020000040000FA
:1000000001288B0183168501F23086008701880163
:10001000831285018601870188019D203021AF2050
:10002000F301030173086B20003A03191A28C42056
:10003000F30A1228B220F301030173088120003A69
:1000400003192528C420F30A1D2856283021AF2083
:10005000F301030173087620003A03193228C42003
:10006000F30A2A28B220F301030173088120003A21
:1000700003193D28C420F30A352856283021AF2023
:10008000F301030173088420003A03194A28C420AD
:10009000F30A4228B220F301030173088120003AD9
:1000A00003195528C420F30A4D285628861C5628C3
:1000B000060E0F39EC207A1C5E280E287B1C612866
:1000C00026287C1C64283E2865288C20C42086189D
:1000D000672856286A2882074D34613469346E34A3
:1000E00020344D3465346E34753400348207523414
:1000F000653461346C342034543469346D3465347F
:10010000003482073E340034820752346534703440
:100110006F347234743400348207313432343334FF
:100120004134343435343634423437343834393465
:1001300043342A3430342334443483128815D32092
:10014000D320D3203330B5203230B5202830B5202D
:100150000F30B5200630B5200130B5200800013041
:10016000B5200800C030B52008000811F200F039B1
:1001700088008815D3208811720EF0398800881500
:10018000D3208811D32008000815F400F039043E6C
:1001900088008815D320740EF039043E8800881535
:1001A000D320881108001430F100FF30F000F00B6C
:1001B000D728F10BD52808008830F500BD30F600AF
:1001C0000330F700F50BE528F60BE728F70BE228DC
:1001D000E928000000000800F900F8000301013ED2
:1001E000F819FC2878190629F81816297818FA2819
:1001F000FE072E29FF072E2978190E29F818222923
:100200007818042984072E2985072E29F8181C2917
:1002100078180C2981072E2982072E29F8182829F9
:100220007818142989072E2987072E2978181A2962
:1002300080072E29FA072E297818202983072E29CE
:10024000FB072E297818262986072E29FC072E2938
:1002500078182C2988072E29FD072E2979080800EF
:0A026000FA01FB01FC01FD0108009A
:04026A000034003428
:02400E00723FFF
:00000001FF
