:020000040000FA
:02000000C8280E
:040002000034003492
:02000800CD2801
:06000A00D0008A0150083D
:10001000820049344E3449345434493441344C34E8
:1000200049345A3449344E3447342E342E342E3425
:1000300000344E344F3420345234453450344F342D
:1000400052345434003445344E34543445345234EC
:10005000203432343034593459344D344D344434EE
:100060004434003445344E3454344534523420340E
:10007000683468346D346D3473347334003432341E
:10008000303400342D3400343A3400344C344F349E
:100090004734203445344E345434523459343A348D
:1000A00020340034533454344134523454343A34C8
:1000B00020340034463449344E34493453344834BF
:1000C0003A3420340034523455344E3454344934A4
:1000D0004D3445343A3420340034733400345234CF
:1000E000453444343A3420340034433441344D34BC
:1000F00045344C343A3420340034523455344E3480
:100100004E3449344E34473400342E3400344934AC
:100110004E345334503445344334543449344F34DA
:100120004E342034463449344E3400345034413453
:100130005434203431343A3420340034503441348F
:100140005434203432343A342034003445344D347D
:1001500045345234473445344E34433459342034D2
:10016000533454344F345034003400343134323446
:10017000333400343434353436340034373438349E
:100180003934003400343034003400342F34003437
:100190000221861878222C23C928F000030E83132D
:1001A00003138312F1000408F2000B1DE528F30A83
:1001B0007308983C031DE428F3015930D5215630CB
:1001C0000318EB21FF30CD000B118B1DFB280B1CFE
:1001D000FB28060E0F390B3C031DFA28383084002B
:1001E000A6304422C8254F25D725071007118710B0
:1001F0008711F9280B1072088400710E8300F00E2D
:10020000700E09000D2124212B21332181018B1631
:100210008B170230CE004E2208008B018312810121
:10022000F3018316853081002F308500F23086007F
:10023000E0308700003088000030890004309F00E3
:10024000831281309F0008000030CE00CF01C90129
:10025000CB01CC0108008501860187018801890155
:100260009B254E2208000130CE00D401D501D601D5
:10027000D701D801D901C825383084002330442261
:100280004F25D225383084003F3044224F25D201FB
:10029000861C4829060E0F39B63E0520003E03197C
:1002A0008429D100DC253030D1025208F40001301D
:1002B0008A0074085E3E03188A0A820064296B294A
:1002C0006F2976297A2981295108A2000A304E2403
:1002D000D407D20A84295108D407D20A84295108A4
:1002E000A2000A304E24D507D20A84295108D50726
:1002F000D20A84295108A2000A304E24D607D20A15
:1003000084295108D607D20A861884290630520259
:10031000031C4829C82538308400323044224F2538
:10032000D225D201861C9229060E0F39B63E052031
:10033000003E0319CE29D100DC253030D10252080D
:10034000F40001308A007408A83E03188A0A82006B
:10035000AE29B529B929C029C429CB295108A20041
:100360000A304E24D707D20ACE295108D707D20A1D
:10037000CE295108A2000A304E24D807D20ACE292D
:100380005108D807D20ACE295108A2000A304E24BB
:10039000D907D20ACE295108D907D20A8618CE2900
:1003A00006305202031C922908008400800A3C3067
:1003B0000002031C080080018403800A3C30000214
:1003C000031C080080018403800A18300002031C0B
:1003D0000800800108008400800A1F300002031C0E
:1003E00008008001800A8403800A0D300002031C8B
:1003F00008008001800A8403800A08005E08610208
:100400000318032A3C3ED0005F08620203180A2A40
:100410003C3ED003D0080319122A3C3E0318142A8C
:10042000D00B0D2AE3000800FF30E300080020088D
:10043000A20064305C22031D222A03302102031C27
:10044000272A0030303E8000840A0330A1002008B3
:10045000A20064305C222208A2000A305C22031D44
:10046000362A02302102031C392A0030303E800037
:10047000840A2008A2000A305C222208303E800054
:10048000840A003080000800CA004A080520800065
:10049000800803190800840ACA0A452A4E08053C48
:1004A0000319080049083223C8254F25490A322379
:1004B000D2254F25D7250800003E03140319080054
:1004C000A301A202031C662AA30A612AA207230829
:1004D0000800E6015F30A20005305C222208E60039
:1004E000E7016230A20005305C222208E700080024
:1004F000060E0F39F40002308A007408823E031899
:100500008A0A8200922A922A922A962A922A922A69
:10051000922A9A2ACB2AA12A922A2B2BD32AB72AAB
:10052000922ADC2A8618922A4E2208000230CE0037
:10053000C901922A0430CB0803190330CE00C90147
:10054000922ACB0803199A2A4B084C020C3EA200AF
:100550000C305C2222084F0203199A2A4F030C3EEA
:10056000A2000C305C222208CF005A249A2ACB0821
:1005700003199A2A4C030C3EA2000C305C2222087C
:100580004F0203199A2A4F0AA2000C305C2222085B
:10059000CF005A249A2A04304E02031D922AC90819
:1005A000031DC903922A04304E02031D922A06300D
:1005B0004902031DC90A922A0530CE00C8253830E9
:1005C0008400963044224F25D201861CE52A060E6F
:1005D0000F39B63E0520003E0319F62AD100DC256E
:1005E0003030D10252085108E400D20A8618F62AA7
:1005F00001305202031CE52A38308400D2259E3097
:1006000044224F25D201861C032B060E0F39B63E1D
:100610000520003E0319142BD100DC253030D10217
:1006200052085108E500D20A8618142B01305202F4
:10063000031C032BC901C825383084007D304422B7
:100640004F25B9240630CE00C9014E220430CE0019
:10065000C9014E220800922ACD080319312B4E22DF
:10066000CD010800D100383084004E08F40003307A
:100670008A0074083E3E03188A0A8200452B502BDC
:10068000532B5E2B692B7B2B862B5108F4000330F8
:100690008A0074084E3E03188A0A8200912B942B1C
:1006A000B530442208005108F40003308A00740871
:1006B0005C3E03188A0A8200972BAD2B5108F40088
:1006C00003308A007408673E03188A0A8200C12B2F
:1006D000C42B5108F40003308A007408723E0318DA
:1006E0008A0A8200C72BE22BF82B0E2C182C202C08
:1006F000282C302C382C5108F40003308A00740860
:10070000843E03188A0A82003B2C3E2C5108F400D8
:1007100003308A0074088F3E03188A0A8200412C35
:10072000442C093044220800B530442208003F30F0
:1007300044225408A0000230A10017224230442273
:100740005508A0000230A10017224230442256086A
:10075000A0000230A100172208005708A0000230B4
:10076000A1001722443044225808A0000230A10002
:100770001722443044225908A0000230A100172259
:100780000800193044220800B530442208004630E1
:1007900044224C084B024F07013E0C3EA2000C3095
:1007A0005C22220803190C30D2005208A00002304B
:1007B000A1001722C63044224B08A0000230A1003D
:1007C00017220800523044225D08A0000230A10028
:1007D0001722443044225E08A0000230A1001722F4
:1007E000443044225F08A0000230A1001722080014
:1007F0005A3044226008A0000230A1001722443081
:1008000044226108A0000230A10017224430442293
:100810006208A0000230A1001722080063304422C1
:100820006308A0000130A10017226D3044220800A7
:10083000963044226408A0000130A100172208006D
:100840009E3044226508A0000130A1001722080054
:100850006F3044226608A0000130A1001722080072
:10086000753044226708A0000130A100172208005B
:10087000B530442208007D3044220800B5304422BF
:100880000800873044220800633044226308A00037
:100890000130A10017226D30442208000310A3008C
:1008A0000030A2080319080023070318592CA20BD3
:1008B000542C0800D100A20006305C22A200803037
:1008C0004E24103ED0005108A20006305C222208BF
:1008D000A20010304E245007831784000008E30064
:1008E000840A000E0F39DA0000080F39DB00840A91
:1008F0000008DC00840A0008DD00840A0008DE002D
:10090000840A0008DF00840A0008E400840A000862
:10091000E500840A0008E600840A0008E700840A6B
:100920000408D0005D08E0005E08E1005F08E20016
:100930006308A2003C305C22E1076308A2003C305F
:100940005C222208E2073C306202031CAA2C3C30E5
:10095000E202E10A3C306102031CB72C3C30E102A8
:10096000E00A18306002031CB72C1830E002831331
:1009700008005408DA005508DB005608DC00570868
:10098000DD005808DE005908DF000B108B158710BA
:1009900087158A110A121E30FA25871105268A1139
:1009A0000A12871EC72C8701871087118A150A1221
:1009B00001306402031900208A150A120230640211
:1009C00003196A208A150A12033064020319E6200B
:1009D0008A150A12043064020319BA218A150A1210
:1009E00005306402031950218A150A120630640288
:1009F000031926228A110A1205303D268A110A128D
:100A0000871087158A110A120526871105268A1173
:100A10000A12871E002D8A110A128701871087117A
:100A200000008A150A1201306502031961228A1535
:100A30000A12023065020319CB228A150A1203300A
:100A40006502031933238A150A120430650203195B
:100A50000E248A150A120530650203199E238A1591
:100A60000A120630650203197E248A110A124826EA
:100A70008A110A128710871505303D2648268711EE
:100A800068306922693069228B115708E0005808E4
:100A9000E1005908E200FE215725CF000800383058
:100AA0008400000803190800DC25840A512D4C0835
:100AB000A20006305C22A20080304E24103ED000FE
:100AC0004C08A20006305C222208A20010304E24FE
:100AD00050078317840063088000840A5A0E5B075E
:100AE0008000840A5C088000840A5D088000840A13
:100AF0005E088000840A5F088000840A6408800021
:100B0000840A65088000840A66088000840A6708F1
:100B10008000840A0408D0004C08D000CC0A0C30B5
:100B20004C02031C0C3ECC000C304B02031CCB0AC5
:060B3000500883130800C9
:0A0B36008312881505260526052602
:100B4000052608113030F03988040F388805EF2564
:100B50008811EF2588150526EF258811EF258815C2
:100B6000EF25EF25EF258811EF2588152030F03986
:100B700088040F388805EF258811EF25881528305F
:100B8000DC250F30DC250630DC25C82508150800DB
:100B900008110130DC252830F500EF25F50BCD2DAF
:100BA000081508000811C030DC25081508000811D8
:100BB000D030DC2508150800F500F03988040F381E
:100BC0008805EF258811EF258815750EF039880402
:100BD0000F388805EF258811EF25881508000313C5
:100BE0008316A0002630A100A10BF42D200883124B
:100BF0000000080003138316A500EF2503138316D6
:100C0000A50BFD2D83120000080003138316A2001C
:100C10006030A300000003138316A0002730A1005A
:100C2000A10B102E20088312000003138316A30BC0
:100C30000A2E0230A300A30B1B2E00000000220886
:100C400083120000080003138316A5000526031372
:100C50008316A50B262E83120000080003138316AB
:100C6000A200F930A300FA30A1000000A10B352E3C
:100C7000A30B332E22088312080003138316A5004A
:100C80002E2603138316A50B402E831200000800A6
:100C900003138316A400C730A5000526031383168B
:100CA000A50B4D2E4630A500EF2503138316A50B8B
:0A0CB000542E2408831200000800EF
:10100000071007158A110A1206303D2607112E26F1
:10101000071404303D2607102E26071506303D26FE
:1010200007112E26071404303D2607102E2607151B
:1010300006303D2607112E26071404303D260710E2
:101040002E26071506303D2607112E2607140430DC
:101050003D2607102E26071506303D2607112E26A1
:10106000071404303D2607102E26071506303D26AE
:1010700007112E26071404303D2607102E260715CB
:1010800006303D2607112E26071404303D26071092
:101090002E26071506303D2607112E26071404308C
:1010A0003D2607102E26071506303D2607112E2651
:1010B000071404303D2607102E26071506303D265E
:1010C00007112E26071403303D260A302326071168
:1010D00007100800071107148A110A1206303D266E
:1010E00007102E26071504303D260A302326071147
:1010F0002E26071406303D2607102E26071504302D
:101100003D260A30232607112E26071406303D26D9
:1011100007102E26071504303D260A302326071116
:101120002E26071406303D2607102E2607150430FC
:101130003D260A30232607112E26071406303D26A9
:1011400007102E26071504303D260A3023260711E6
:101150002E26071406303D2607102E2607150430CC
:101160003D260A30232607112E26071406303D2679
:1011700007102E26071504303D260A3023260711B6
:101180002E26071406303D2607102E26071504309C
:101190003D260A30232607112E26071406303D2649
:1011A00007102E26071504303D260A302326071186
:1011B0002E26071406303D2607102E26071503306D
:1011C0003D26063023260711071008008A110A124F
:1011D0000710071506303D2607112E260714043088
:1011E0003D2607102E26071506303D2607112E2610
:1011F000071404303D2607102E26071506303D261D
:1012000007112E26071404303D2607102E26071539
:1012100006303D2607112E26071404303D26071000
:101220002E26071506303D2607112E2607140430FA
:101230003D2607112E26071406303D2607102E26C0
:10124000071504303D2607112E26071406303D26CB
:1012500007102E26071504303D2607112E260714E9
:1012600006303D2607102E26071504303D260711AF
:101270002E26071406303D2607102E2607150430AB
:101280003D2607112E26071406303D2607102E2670
:10129000071503303D260A302326071107100800E2
:1012A0008A110A120710071506303D2607112E264F
:1012B000071404303D2607102E26071506303D265C
:1012C00007112E26071404303D2607112E26071479
:1012D00006303D2607102E26071504303D260A301D
:1012E000232607112E26071406303D2607102E262A
:1012F000071504303D2607102E26071506303D261B
:1013000007112E26071404303D2607102E26071538
:1013100006303D2607112E26071404303D260711FE
:101320002E26071406303D2607102E2607150430FA
:101330003D2607112E26071406303D2607102E26BF
:10134000071504303D2607102E26071506303D26CA
:1013500007112E26071404303D2607102E260715E8
:1013600006303D2607112E26071403303D260711AF
:10137000071008008A110A120711071406303D26CB
:1013800007102E26071504303D260A3023260711A4
:101390002E26071406303D2607102E26071504308A
:1013A0003D2607102E26071506303D2607112E264E
:1013B000071404303D2607102E26071506303D265B
:1013C00007112E26071404303D2607112E26071478
:1013D00006303D2607102E26071504303D2607113E
:1013E0002E26071406303D2607102E26071504303A
:1013F0003D2607102E26071506303D2607112E26FE
:10140000071404303D2607102E26071506303D260A
:1014100007112E26071404303D2607112E26071427
:1014200006303D2607102E26071504303D260711ED
:101430002E26071406303D2607102E2607150330EA
:101440003D260A3023260711071008008A110A12C8
:101450000711071405303D2607102E260715093001
:101460003D2607112E26071409303D2607102E268B
:10147000071509303D2607112E26071409303D2691
:1014800007102E26071509303D2607112E260714B2
:1014900009303D2607102E26071509303D26071175
:1014A0002E26071409303D2607102E260715093071
:1014B0003D2607112E26071403303D26071007117D
:1014C0000800071007158A110A1205303D2607117A
:1014D0002E26071403303D2607102E26071505304B
:1014E0003D2607112E26071403303D2607102E2611
:1014F000071505303D2607112E26071403303D261B
:1015000007102E26071505303D2607112E26071435
:1015100003303D2607102E26071505303D260711FE
:101520002E26071403303D2607102E2607150530FA
:101530003D2607112E26071403303D2607102E26C0
:10154000071505303D2607112E26071403303D26CA
:1015500007102E26071505303D2607112E260714E5
:1015600003303D2607102E26071505303D260711AE
:101570002E26071403303D2607102E2607150530AA
:101580003D2607112E26071402303D26053023265E
:10159000071107100800071107148A110A120630F4
:1015A0003D2607102E26071504303D2607112E264E
:1015B000071406303D2607102E26071504303D2659
:1015C00007112E26071406303D2607102E26071574
:1015D00004303D2607112E26071406303D2607103D
:1015E0002E26071504303D2607112E260714063037
:1015F0003D2607102E26071503303D2607112E26FF
:10160000071406303D2607102E26071503303D2609
:1016100007112E26071406303D2607102E26071523
:1016200003303D2607112E26071406303D260710ED
:101630002E26071503303D2607112E2607140630E7
:101640003D2607102E26071503303D2607112E26AE
:10165000071406303D2607102E26071501303D26BB
:101660000711071008008A110A1207100715063023
:101670003D262E2607112E26071404303D2607107E
:101680002E26071506303D2607112E260714043096
:101690003D2607102E26071506303D2607112E265B
:1016A000071404303D2607102E26071506303D2668
:1016B00007112E26071404303D2607102E26071585
:1016C00006303D2607112E26071404303D2607114B
:1016D0002E26071406303D2607102E260715043047
:1016E0003D2607112E26071406303D2607102E260C
:1016F000071503303D2607112E26071406303D2618
:1017000007102E26071503303D2607112E26071435
:1017100006303D2607102E26071503303D260711FB
:101720002E26071406303D2607102E2607150130F9
:101730003D260A3023260711071008008A110A12D5
:101740000710071506303D2607112E260714033013
:101750003D260A30232607102E26071506303D2683
:1017600007112E26071403303D260A3023260711C1
:101770002E26071406303D2607102E2607150330A7
:101780003D260A30232607112E26071406303D2653
:1017900007102E26071503303D2607102E260715A5
:1017A00006303D2607112E26071403303D2607106C
:1017B0002E26071506303D2607112E260714033066
:1017C0003D2607112E26071406303D2607102E262B
:1017D000071503303D2607112E26071406303D2637
:1017E00007102E26071503303D2607102E26071555
:1017F00006303D2607112E26071403303D2607101C
:101800002E26071506303D2607112E260714023016
:101810003D260E3023260711071008008A110A12F0
:101820000711071406303D2607102E260715033032
:101830003D260A30232607112E26071406303D26A2
:1018400007102E26071503303D260A3023260710E1
:101850002E26071506303D2607112E2607140330C5
:101860003D260A30232607102E26071506303D2672
:1018700007112E26071403303D2607112E260714C4
:1018800006303D2607102E26071503303D2607118A
:101890002E26071406303D2607102E260715033086
:1018A0003D2607102E26071506303D2607112E2649
:1018B000071403303D2607102E26071506303D2657
:1018C00007112E26071403303D2607112E26071474
:1018D00006303D2607102E26071503303D2607113A
:1018E0002E26071406303D2607102E260715013038
:1018F0003D260F3023260711071008008A110A120F
:101900000711071406303D2607102E260715033051
:101910003D2607112E26071506303D2607112E26D7
:10192000071403303D2607102E26071406303D26E7
:1019300007102E26071503303D2607112E26071502
:1019400006303D2607112E26071403303D260710CA
:101950002E26071406303D2607102E2607150230C6
:101960003D2607112E26071506303D2607112E2687
:10197000071402303D2607102E26071406303D2698
:1019800007102E26071502303D2607112E260715B3
:1019900006303D2607112E26071402303D2607107B
:1019A0002E26071406303D2607102E260715023076
:1019B0003D2607112E26071506303D2607112E2637
:0C19C000071403303D2607100711080033
:02400E00723FFF
:00000001FF
