:020000040000FA
:1000000001288B0183168501F23086008701880163
:1000100083128501860187018801AB01E721482110
:100020000030AB00E7215A21A30103012308EF2090
:10003000003A03191E286F21A30A16285D21A30187
:1000400003012308FA20003A031929286F21A30A83
:100050002128A728E7215A21A30103012308C22050
:10006000003A031936286F21A30A2E28972104305D
:10007000AB00E7215A21A30103012308D120003A54
:10008000031945286F21A30A3D285D21A30103011F
:100090002308FA20003A031950286F21A30A4828A0
:1000A000A7280830AB00E7215A21A3010301230848
:1000B000E020003A03195F286F21A30A57285D2129
:1000C000A30103012308FA20003A03196A286F21CB
:1000D000A30A6228A728E7215A21A30103012308C4
:1000E000FD20003A031977286F21A30A6F28972172
:1000F0000130AB00E7215A21A30103012308172196
:10010000003A031986286F21A30A7E285D21A728BB
:10011000E7210230AB005A21A30103012308292162
:10012000003A031996286F21A30A8E285D21A7287B
:10013000E721AB1D9C283728A7282B1CA02878284E
:10014000AB1CA32888282B1DA6285128A728861C6D
:10015000A728060E0F39A7212A1DAF281028AA1D8F
:10016000B2282A28AA1CB5286B28A91FB8289828C5
:100170002A1CBB289D28BC2805216F218618BE2873
:10018000A728C12882074E346534773420346F3471
:100190007034653472346134743469346F346E345D
:1001A0000034820731347334743420347034613451
:1001B00074347434653472346E343A342034003418
:1001C000820732346E3464342034703461347434D1
:1001D0007434653472346E343A3420340034820717
:1001E0005234653461346C342034543469346D34A1
:1001F0006534003482073E3400348207523465345B
:1002000070346F34723474340034820731343234D1
:10021000333441343434353436344234373438347A
:10022000393443342A34303423344434003482079C
:100230004F347034653472346134743469346F34DB
:100240006E342034743469346D3465343A34203477
:100250000034820750346134743474346534723439
:100260006E3473343A3420340034820741346E34AF
:1002700020344534723472346F34723420344F3445
:1002800063346334753472347234653464340034E6
:10029000831288157E217E217E2133306021323009
:1002A0006021283060210F3060210630602101304C
:1002B00060210800013060210800C0306021080082
:1002C0000811A200F039880088157E218811220EBD
:1002D000F039880088157E2188117E2108000815D4
:1002E000A400F039043E880088157E21240EF039E0
:1002F000043E880088157E21881108001430A10072
:10030000FF30A000A00B8229A10B802908008830B3
:10031000A500BD30A6000330A700A50B9029A60BB1
:100320009229A70B8D29942900000000080088302D
:10033000A500BD30A6000930A700A50BA029A60B7B
:10034000A229A70B9D29A429000000000800A800ED
:10035000A819B4292819BE29A818CE292818B22905
:10036000A914E6292915E6292819C629A818DA2981
:100370002818BC29A917E6292A14E629A818D4297F
:100380002818C4292916E629A916E629A818E0295B
:100390002818CC292A17E6292914E6292818D22951
:1003A000A915E6292A15E6292818D8292917E629A2
:1003B000AA15E6292818DE29AA14E6292A16E6290C
:1003C0002818E429AA17E629AA16E6290800A9018F
:0403D000AA01080076
:0403D40000340034BD
:02400E00323F3F
:00000001FF
