:020000040000FA
:1000000001288B0183168501F23086008701880163
:10001000831285018601870188014C20F3010301C9
:1000200073082D20003A031918287320F30A1028AA
:100030006120F301030173083820003A03192328D3
:100040007320F30A1B28861C2328060E0F393B2039
:1000500073208618292823282C2882074D346134E0
:1000600069346E3420344D3465346E347534003464
:1000700082073E3400348207313432343334413421
:100080003434353436344234373438343934433404
:100090002A34303423344434831288158220822059
:1000A00082203330642032306420283064200F30C6
:1000B0006420063064200130642008000130642090
:1000C0000800C030642008000811F200F0398800F0
:1000D000881582208811720EF039880088158220D8
:1000E0008811822008000815F400F039043E8800C9
:1000F00088158220740EF039043E8800881582200D
:10010000881108001430F100FF30F000F00B862851
:10011000F10B842808008830F500BD30F60003306C
:10012000F700F50B9428F60B9628F70B91289828E2
:06013000000000000800C1
:04013600003400345D
:02400E00723FFF
:00000001FF
