:020000040000FA
:1000000001288B0183168501F23086008701880163
:10001000831285018601870188019D203021AF2050
:10002000A301030123086B20003A03191A28C420F6
:10003000A30A1228B220A301030123088120003A59
:1000400003192528C420A30A1D2856283021AF20D3
:10005000A301030123087620003A03193228C420A3
:10006000A30A2A28B220A301030123088120003A11
:1000700003193D28C420A30A352856283021AF2073
:10008000A301030123088420003A03194A28C4204D
:10009000A30A4228B220A301030123088120003AC9
:1000A00003195528C420A30A4D285628861C562813
:1000B000060E0F39EC202A1C5E280E282B1C612806
:1000C00026282C1C64283E2865288C20C4208618ED
:1000D000672856286A2882074D34613469346E34A3
:1000E00020344D3465346E34753400348207523414
:1000F000653461346C342034543469346D3465347F
:10010000003482073E340034820752346534703440
:100110006F347234743400348207313432343334FF
:100120004134343435343634423437343834393465
:1001300043342A3430342334443483128815D32092
:10014000D320D3203330B5203230B5202830B5202D
:100150000F30B5200630B5200130B5200800013041
:10016000B5200800C030B52008000811A200F03901
:1001700088008815D3208811220EF0398800881550
:10018000D3208811D32008000815A400F039043EBC
:1001900088008815D320240EF039043E8800881585
:1001A000D320881108001430A100FF30A000A00B5C
:1001B000D728A10BD52808008830A500BD30A6009F
:1001C0000330A700A50BE528A60BE728A70BE2281C
:1001D000E928000000000800A900A8000301013E72
:1001E000A819FC2828190629A81816292818FA2859
:1001F000AE072E29AF072E2928190E29A818222963
:1002000028180429B4072E29B5072E29A8181C2957
:1002100028180C29B1072E29B2072E29A818282939
:1002200028181429B9072E29B7072E2928181A29A2
:10023000B0072E29AA072E2928182029B3072E290E
:10024000AB072E2928182629B6072E29AC072E29F8
:1002500028182C29B8072E29AD072E2929080800AF
:10026000AA01AB01AC01AD01B101B001B9010800B7
:040270000034003422
:02400E00723FFF
:00000001FF
