:020000040000FA
:1000000001288B0183168501F23086008701880163
:100010008312850186018701880178208A20830167
:10002000030103084E20003A031919289F20830A70
:1000300011288D208301030103086420003A03196D
:1000400024289F20830A1C283C288A20830103013E
:1000500003085920003A031930289F20830A2828D2
:100060008D208301030103086420003A03193B2813
:100070009F20830A33283C28861C3C28060E0F3913
:10008000C720081C48282528D620091C48280E28E7
:1000900067209F2086184A283C284D2882074D3427
:1000A000613469346E3420344D3465346E347534C3
:1000B000003482075234653461346C342034543453
:1000C00069346D346534003482073E34003482076D
:1000D00031343234333441343434353436344234C8
:1000E00037343834393443342A34303423344434C4
:1000F00083128815AE20AE20AE20333090203230EF
:100100009020283090200F30902006309020013031
:1001100090200800013090200800C0309020080096
:1001200008118200F03988008815AE208811020E6F
:10013000F03988008815AE208811AE200800081517
:100140008400F039043E88008815AE20040EF03992
:10015000043E88008815AE20881108001430810004
:10016000FF308000800BB228810BB0280800883057
:100170008500BD30860003308700850BC028860BC4
:10018000C228870BBD28C4280000000008008B008F
:100190008A000A18CC288A1CCE280A19D0288A1965
:1001A000D4280301010788000B0808008B008A008F
:1001B0000A1CDB288A18DD280A19DF288A19E32897
:0A01C0000301010789000B08080085
:0401CA0000340034C9
:02400E00723FFF
:00000001FF
