:020000040000FA
:1000000001288B0183168501F23086008701880163
:10001000831285018601870188013220F3010301E3
:1000200073082420003A031918285920F30A1028CD
:100030004720F301030173082F20003A03192328F6
:100040005920F30A1B28232882074D346134693470
:100050006E3420344D3465346E3475340034820788
:100060003E340034831288156820682068203330BD
:100070004A2032304A2028304A200F304A200630A9
:100080004A2001304A20080001304A200800C030D0
:100090004A2008000811F200F0398800881568200D
:1000A0008811720EF0398800881568208811682040
:1000B00008000815F400F039043E8800881568200F
:1000C000740EF039043E88008815682088110800F5
:1000D0001430F100FF30F000F00B6C28F10B6A28AF
:1000E00008008830F500BD30F6000330F700F50B4E
:1000F0007A28F60B7C28F70B77287E280000000072
:020100000800F5
:040102000034003491
:02400E00723FFF
:00000001FF
