:020000040000FA
:02000000EB28EB
:040002000034003492
:02000800F028DE
:06000A00B4008A01340875
:10001000820049344E3449345434493441344C34E8
:1000200049345A3449344E3447342E342E342E3425
:1000300000344E344F3420345234453450344F342D
:1000400052345434003445344E34543445345234EC
:10005000203432343034593459344D344D344434EE
:1000600044343A34003445344E34543445345234F4
:100070002034683468346D346D34733473343A34F6
:1000800000343234303400342D3400343A34003407
:100090004C344F344734203445344E345434523485
:1000A00059343A34203400345334543441345234C3
:1000B00054343A3420340034463449344E344934CC
:1000C000533448343A3420340034523455344E34A6
:1000D000543449344D3445343A3420340034733484
:1000E000003454344F34543441344C343A34203492
:1000F000003450344134533453343A3420340034CF
:1001000020344634413449344C343A3420340034B9
:100110004C34413459344F34553454343A34003427
:10012000203454344F3450342034313420340034AB
:10013000203432342034003420343334203400343A
:10014000203442344F345434203434342034003496
:10015000523455344E344E3449344E3447340034DE
:100160002E34003449344E345334503445344334FF
:10017000543449344F344E342034463449344E34A8
:10018000003445344D3445345234473445344E34CC
:10019000433459342034533454344F3450340034BD
:1001A0000034583446344634503458344634463497
:1001B000503431343234333400343434353436341A
:1001C00000343734383439340034003430340034B7
:1001D00000342F3400342521861801227922EC289E
:1001E000F000030E831303138312F1000408F200DE
:1001F0000B1D0829F30A7308983C031D0729F30116
:1002000045305D26423003187326FF30EC000B1199
:100210008B1D1E290B1C1E29060E0F390B3C031DBE
:100220001D29071107108710091123308400C130E0
:10023000B6232F270D243E271C290B10720884009B
:10024000710E8300F00E700E09002F2146215F21F0
:1002500081018B168B170230A0007F2208008B01D2
:1002600083128101F3018316853081002F308500D0
:10027000F2308600A030870000308800003089000E
:1002800002309F00831281309F0008000030A000E0
:10029000A101A201E801E9010130E70008008501A0
:1002A000860187018801890102277F224B25E7010A
:1002B00053255325532553250130E700080001300D
:1002C000A000C001C101C201C301C401C5012F27A3
:1002D000233084002330B6230D24392723308400B3
:1002E0004130B6230D24B601861C7429060E0F3941
:1002F000D93E0520003E0319B029B5004327303010
:10030000B5023608F40001308A0074088A3E0318EA
:100310008A0A8200902997299B29A229A629AD291A
:100320003508EA000A309326C007B60AB029350816
:10033000C007B60AB0293508EA000A309326C1077B
:10034000B60AB0293508C107B60AB0293508EA004F
:100350000A309326C207B60AB0293508C207B60A82
:100360008618B02906303602031C74292F27233043
:1003700084003330B6230D243927B601861CBE29EC
:10038000060E0F39D93E0520003E0319FA29B500A3
:1003900043273030B5023608F40001308A00740873
:1003A000D43E03188A0A8200DA29E129E529EC29DA
:1003B000F029F7293508EA000A309326C307B60A60
:1003C000FA293508C307B60AFA293508EA000A30BF
:1003D0009326C407B60AFA293508C407B60AFA29CB
:1003E0003508EA000A309326C507B60AFA29350807
:1003F000C507B60A8618FA2906303602031CBE293C
:100400000800060E0F39F40002308A0074080B3E13
:1004100003188A0A82001F2A232A1B2A1B2A1B2A46
:100420001B2A1B2A1B2A542A2A2A1B2A782A5C2ABE
:10043000402A1B2A652A86181B2A7F2208000230C0
:10044000A000A2011B2A0430E80803190330A00011
:10045000A2011B2AE8080319232A680869020C3E36
:10046000EA000C3086266A0821020319232A210398
:100470000C3EEA000C3086266A08A100DB25232A00
:10048000E8080319232A69030C3EEA000C3086268B
:100490006A0821020319232A210AEA000C30862661
:1004A0006A08A100DB25232A04302002031D1B2A31
:1004B000A208031DA2031B2A04302002031D1B2ACD
:1004C00009302202031DA20A1B2A0530A000A20146
:1004D0002F2723308400A830B6230D24152406309E
:1004E000A000A2017F220430A000A2017F22080008
:1004F0001B2AEC0803197E2A7F22EC010800200841
:10050000053C0319080022088D222F270D24220AFA
:100510008D2239270D243E270800B50023308400A2
:100520002008F40002308A007408993E03188A0AF1
:100530008200A02AAB2AAE2AB92AC42AD82AE32AE2
:100540003508F40002308A007408A93E03188A0AAC
:100550008200EE2AF12AD030B62308003508F400D4
:1005600002308A007408B73E03188A0A8200F42A0F
:100570000A2B3508F40002308A007408C23E0318C2
:100580008A0A82001E2B212B3508F40002308A00D3
:100590007408CD3E03188A0A8200242B3F2B552B6A
:1005A0006B2B752B7D2B8C2B8F2B942B992B9E2BB0
:1005B0003508F40002308A007408E13E03188A0A04
:1005C0008200A32BA62B3508F40002308A007408A1
:1005D000EC3E03188A0A8200A92BAC2B0930B62303
:1005E0000800D030B62308004130B6234008BB00D5
:1005F0000230BC00E0234430B6234108BB00023087
:10060000BC00E0234430B6234208BB000230BC00EB
:10061000E02308004308BB000230BC00E023463062
:10062000B6234408BB000230BC00E0234630B623AA
:100630004508BB000230BC00E02308001930B62397
:100640000800D030B62308004830B6236908680295
:100650002107013E0C3EEA000C3086266A08031989
:100660000C30B6003608BB000230BC00E023E93095
:10067000B6236808BB000230BC00E02308005430F9
:10068000B6234908BB000230BC00E0234630B62345
:100690004A08BB000230BC00E0234630B6234B08BA
:1006A000BB000230BC00E02308005C30B6234C08DD
:1006B000BB000230BC00E0234630B6234D08BB002F
:1006C0000230BC00E0234630B6234E08BB000230A7
:1006D000BC00E02308006530B6234F08BB000130A2
:1006E000BC00E0236F30B62308007130B6235008F9
:1006F000BB000130BC00E02308007930B62351086C
:10070000BB000130BC00E0238030B6235208BB00A0
:100710000130BC00E02308008830B6230800903088
:10072000B6230030C02308009830B6230130C02320
:1007300008009C30B6230230C0230800A030B62346
:100740000330C0230800A830B6230800D030B623F9
:100750000800B230B62308006530B6234F08BB004E
:100760000130BC00E0236F30B6230800BD003D0817
:1007700005208000800803190800840ABD0AB72BF1
:10078000B4005330B4080319C82B053EB40BC52B75
:10079000B5000408B6000530B70035088400D13034
:1007A00000070520B4003608840034088000B50A2C
:1007B000B60AB70BCD2B3608840000308000080045
:1007C0003B08EA0064308626031DEB2B03303C0215
:1007D000031CF02B0030303E8000840A0330BC0044
:1007E0003B08EA00643086266A08EA000A3086265A
:1007F000031DFF2B02303C02031C022C0030303E54
:100800008000840A3B08EA000A3086266A08303EE7
:100810008000840A00308000080023308400000833
:10082000031908004327840A0F2C4008C60041081A
:10083000C7004208C8004308C9004408CA00450868
:10084000CB00533084001430B4008001840AB40B10
:10085000252C5330E7080319312C143EB400053021
:100860003402BF000430BE00D001D101D2010B1010
:100870008B15B030212523308400B030B6230D24F1
:1008800001303E25B530212500303E253F08B4001B
:100890001C30B700982403197A2C4325B530212544
:1008A000B4005030B70098244B25BA3021252330AE
:1008B0008400B030B6230D2443254B25BF302125BD
:1008C00023308400B030B6230D243F08AF24003E0F
:1008D00003197A2C0530E708031D702CBF07712C13
:1008E000BF02BE0303198B2C532523308400B03084
:1008F000B6230D240530E708031D802CBF07812C8B
:10090000BF02BE0303198B2C532523308400B03063
:10091000B6230D24402C8B110130E7064308CC0090
:100920004408CD004508CE0008258325A100080015
:10093000B501B60134088400B530350784003708A6
:100940000002031CA72C340884000014B60AB40A61
:10095000B50A05303502031C9A2C36080800B4008D
:10096000B501B601B701B801B901BA013408840074
:1009700000300018FF30B600BA3035078400503020
:100980000002031CC52CFF30C62C0030B700B0306D
:100990003507840005300007BA00BF3035078400F2
:1009A0003A080002031CD62CFF30D72C0030B800C8
:1009B0003408840080013608370438040319E32C16
:1009C0000014D00AB90A3808FF3A3705BA003708C8
:1009D000FF3A360538053A040319F02C8014D10A81
:1009E0003708FF3A3805BA003608FF3A37053A04A7
:1009F000031D0015B40AB50A05303502031CB62CD8
:100A000051085002D20003303902031C0034013473
:100A10004A084D0203180D2D3C3EB4004B084E020F
:100A20000318142D3C3EB403B40803191C2D3C3E9E
:100A300003181E2DB40B172DCF000800FF30CF0078
:100A400008008400B4010530B500C7309F053408A4
:100A50009F040430B60080019F261F151F192E2DFC
:100A60001E08FF3AEA00043086268007B60B2C2DBC
:100A70000830B407840AB50B252D08000711003E85
:100A8000031D071508000915871007141E30E226FC
:100A9000071009110800091507108714871A4E2D31
:100AA0008710091108008810891409151C30B4003A
:100AB0000630E708031D732D08100914871F812DC8
:100AC000C82689108814871F812DC826091008148C
:100AD000871F812DC82688108914871F812DC8265D
:100AE000B40B5C2D812D89108814C82608100914B8
:100AF000C82688108914C82609100814C826B40B03
:100B0000732D091108006908EA0006308626EA00FC
:100B100080309326103EB4006908EA00063086262D
:100B20006A08EA00103093263407831784004F08C0
:100B30008000840A460E47078000840A4808800027
:100B4000840A49088000840A4A088000840A4B0805
:100B50008000840A0408B4005330B5001430B60095
:100B6000350884008313000EB7003408840083170F
:100B700037088000B50AB6030319CC2D3508840068
:100B800083130008B70034088400831737088007F0
:100B9000B50AB40AB60BB02D6908B400E90A0C30E6
:100BA0006902031C0C3EE9000C306802031CE80AD1
:100BB000340883130800B500D001D101EA000630E3
:100BC0008626EA0080309326103EB4003508EA00FD
:100BD000063086266A08EA00103093263407831709
:100BE00084000008CF00840A000E0F39C6000008F8
:100BF0000F39C700840A0008C800840A0008C90029
:100C0000840A0008CA00840A0008CB00840A040889
:100C1000B4005330B5001430B60034088400831794
:100C2000000E0F39B70035088400831337088000A1
:100C30000018D00A8018D10AB50AB6030319332E5A
:100C400034088400831700080F39B7003508840082
:100C50008313370880000018D00A8018D10AB50A1B
:100C6000B40AB60B0D2E4908CC004A08CD004B083B
:100C7000CE004F08EA003C308626CD074F08EA0038
:100C80003C3086266A08CE073C304E02031C4B2EB1
:100C90003C30CE02CD0A3C304D02031C582E3C3075
:100CA000CD02CC0A18304C02031C582E1830CC024E
:100CB00051085002D200831308008400800A3C309F
:100CC0000002031C080080018403800A3C300002FB
:100CD000031C080080018403800A18300002031CF2
:100CE0000800800108008400800A1F300002031CF5
:100CF00008008001800A8403800A0D300002031C72
:100D000008008001800A8403800A0800003E031462
:100D100003190800EB01EA02031C902EEB0A8B2E4C
:100D2000EA076B0808000310EB000030EA0803191B
:0E0D300008006B0703189E2EEA0B992E080090
:020D3E0003139D
:100D40008316A0002630A100A10BA42E2008831238
:100D50000000080003138316A2006030A300000007
:100D600003138316A0002730A100A10BB52E200885
:100D70008312000003138316A30BAF2E0230A300CF
:100D8000A30BC02E00000000220883120000080000
:100D900003138316A500AA2603138316A50BCB2ED7
:100DA00083120000080003138316A200F930A30089
:100DB000FA30A1000000A10BDA2EA30BD82E2208D6
:100DC0008312080003138316A500D326031383168A
:100DD000A50BE52E83120000080003138316A40060
:100DE000C730A500AA2603138316A50BF22E4630A2
:100DF000A5009F2603138316A50BF92E2408831242
:100E00000000080083128815AA26AA26AA26AA2668
:100E100008113030F03988040F3888059F26881172
:100E20009F268815AA269F2688119F2688159F260B
:100E30009F269F2688119F2688152030F039880428
:100E40000F3888059F2688119F268815283043274C
:100E50000F304327063043272F27081508000811B5
:100E6000013043272830F5009F26F50B342F081555
:100E700008000811C0304327081508000811D030B9
:100E8000432708150800F500F03988040F38880555
:100E90009F2688119F268815750EF03988040F3813
:0C0EA00088059F2688119F2688150800F1
:02400E00723FFF
:00000001FF
