:020000040000FA
:02000000EB28EB
:040002000034003492
:02000800F028DE
:06000A00B4008A01340875
:10001000820049344E3449345434493441344C34E8
:1000200049345A3449344E3447342E342E342E3425
:1000300000344E344F3420345234453450344F342D
:1000400052345434003445344E34543445345234EC
:10005000203432343034593459344D344D344434EE
:1000600044343A34003445344E34543445345234F4
:100070002034683468346D346D34733473343A34F6
:1000800000343234303400342D3400343A34003407
:100090004C344F344734203445344E345434523485
:1000A00059343A34203400345334543441345234C3
:1000B00054343A3420340034463449344E344934CC
:1000C000533448343A3420340034523455344E34A6
:1000D000543449344D3445343A3420340034733484
:1000E000003454344F34543441344C343A34203492
:1000F000003450344134533453343A3420340034CF
:1001000020344634413449344C343A3420340034B9
:100110004C34413459344F34553454343A34003427
:10012000203454344F3450342034313420340034AB
:10013000203432342034003420343334203400343A
:10014000203442344F345434203434342034003496
:10015000523455344E344E3449344E3447340034DE
:100160002E34003449344E345334503445344334FF
:10017000543449344F344E342034463449344E34A8
:10018000003445344D3445345234473445344E34CC
:10019000433459342034533454344F3450340034BD
:1001A0000034583446344634503458344634463497
:1001B000503431343234333400343434353436341A
:1001C00000343734383439340034003430340034B7
:1001D00000342F3400342521861802227A22EC289C
:1001E000F000030E831303138312F1000408F200DE
:1001F0000B1D0829F30A7308983C031D0729F30116
:1002000045305E26423003187426FF30EC000B1197
:100210008B1D1E290B1C1E29060E0F390B3C031DBE
:100220001D29071107108710091123308400C130E0
:10023000B72330270E243F271C290B107208840097
:10024000710E8300F00E700E0900302147215021FD
:10025000602181018B168B170230A00080220800DC
:100260008B0183128101F3018316853081002F30C9
:100270008500F2308600A030870000308800003012
:10028000890002309F00831281309F0008000030F7
:10029000A000A101A201E801E9010130E700080086
:1002A00085018601870188018901032780224C2569
:1002B000E70154255425542554250130E700080052
:1002C0000130A000C001C101C201C301C401C501C8
:1002D0003027233084002330B7230E243A272330DD
:1002E00084004130B7230E24B601861C7529060E02
:1002F0000F39D93E0520003E0319B129B500442726
:100300003030B5023608F40001308A0074088B3EA4
:1003100003188A0A8200912998299C29A329A729D0
:10032000AE293508EA000A309426C007B60AB1297A
:100330003508C007B60AB1293508EA000A30942604
:10034000C107B60AB1293508C107B60AB12935086F
:10035000EA000A309426C207B60AB1293508C20756
:10036000B60A8618B12906303602031C75293027D3
:10037000233084003330B7230E243A27B601861C7D
:10038000BF29060E0F39D93E0520003E0319FB296F
:10039000B50044273030B5023608F40001308A0039
:1003A0007408D53E03188A0A8200DB29E229E6296F
:1003B000ED29F129F8293508EA000A309426C30707
:1003C000B60AFB293508C307B60AFB293508EA0037
:1003D0000A309426C407B60AFB293508C407B60AB2
:1003E000FB293508EA000A309426C507B60AFB291E
:1003F0003508C507B60A8618FB2906303602031CE5
:10040000BF290800060E0F39F40002308A00740874
:100410000C3E03188A0A8200202A242A1C2A1C2A3D
:100420001C2A1C2A1C2A1C2A552A2B2A1C2A792AF7
:100430005D2A412A1C2A662A86181C2A8022080066
:100440000230A000A2011C2A0430E808031903307E
:10045000A000A2011C2AE8080319242A68086902DE
:100460000C3EEA000C3087266A0821020319242A70
:1004700021030C3EEA000C3087266A08A100DC2527
:10048000242AE8080319242A69030C3EEA000C30E8
:1004900087266A0821020319242A210AEA000C305F
:1004A00087266A08A100DC25242A04302002031DC7
:1004B0001C2AA208031DA2031C2A04302002031DCB
:1004C0001C2A09302202031DA20A1C2A0530A000A2
:1004D000A201302723308400A830B7230E2416242D
:1004E0000630A000A20180220430A000A2018022D8
:1004F00008001C2AEC0803197F2A8022EC0108005E
:100500002008053C0319080022088E2230270E24FB
:10051000220A8E223A270E243F270800B5002330F6
:1005200084002008F40002308A0074089A3E031800
:100530008A0A8200A12AAC2AAF2ABA2AC52AD92A55
:10054000E42A3508F40002308A007408AA3E031831
:100550008A0A8200EF2AF22AD030B7230800350831
:10056000F40002308A007408B83E03188A0A820038
:10057000F52A0B2B3508F40002308A007408C33EBC
:1005800003188A0A82001F2B222B3508F400023040
:100590008A007408CE3E03188A0A8200252B402B5D
:1005A000562B6C2B762B7E2B8D2B902B952B9A2BF1
:1005B0009F2B3508F40002308A007408E23E0318CD
:1005C0008A0A8200A42BA72B3508F40002308A0087
:1005D0007408ED3E03188A0A8200AA2BAD2B09305D
:1005E000B7230800D030B72308004130B7234008B4
:1005F000BB000230BC00E1234430B7234108BB00FC
:100600000230BC00E1234430B7234208BB00023073
:10061000BC00E12308004308BB000230BC00E1231A
:100620004630B7234408BB000230BC00E12346300B
:10063000B7234508BB000230BC00E1230800193095
:10064000B7230800D030B72308004830B723690823
:1006500068022107013E0C3EEA000C3087266A083A
:1006600003190C30B6003608BB000230BC00E12391
:10067000E930B7236808BB000230BC00E123080062
:100680005430B7234908BB000230BC00E123463098
:10069000B7234A08BB000230BC00E1234630B72331
:1006A0004B08BB000230BC00E12308005C30B723DC
:1006B0004C08BB000230BC00E1234630B7234D0894
:1006C000BB000230BC00E1234630B7234E08BB001C
:1006D0000230BC00E12308006530B7234F08BB009F
:1006E0000130BC00E1236F30B72308007130B7231D
:1006F0005008BB000130BC00E12308007930B7236B
:100700005108BB000130BC00E1238030B723520800
:10071000BB000130BC00E12308008830B72308008B
:100720009030B7230030C12308009830B723013040
:10073000C12308009C30B7230230C1230800A03039
:10074000B7230330C1230800A830B7230800D030F6
:10075000B7230800B230B72308006530B7234F082D
:10076000BB000130BC00E1236F30B7230800BD009F
:100770003D0805208000800803190800840ABD0A8E
:10078000B82BB4005330B4080319C92B053EB40B81
:10079000C62BB5000408B6000530B7003508840044
:1007A000D13000070520B4003608840034088000EA
:1007B000B50AB60AB70BCE2B36088400003080008D
:1007C00008003B08EA0064308726031DEC2B033049
:1007D0003C02031CF12B0030303E8000840A0330C1
:1007E000BC003B08EA00643087266A08EA000A3049
:1007F0008726031D002C02303C02031C032C003012
:10080000303E8000840A3B08EA000A3087266A08E6
:10081000303E8000840A00308000080023308400CD
:100820000008031908004427840A102C4008C60059
:100830004108C7004208C8004308C9004408CA006C
:100840004508CB00533084001430B4008001840A82
:10085000B40B262C5330E7080319322C143EB40095
:1008600005303402BF000430BE00D001D101D201F6
:100870000B108B15B030222523308400B030B72305
:100880000E2401303F25B530222500303F253F089A
:10089000B4001C30B700992403197B2C4425B530D3
:1008A0002225B4005030B70099244C25BA302225B7
:1008B00023308400B030B7230E2444254C25BF30AC
:1008C000222523308400B030B7230E243F08B02403
:1008D000003E03197B2C0530E708031D712CBF0770
:1008E000722CBF02BE0303198C2C542523308400C4
:1008F000B030B7230E240530E708031D812CBF0755
:10090000822CBF02BE0303198C2C54252330840093
:10091000B030B7230E24412C8B110130E706430879
:10092000CC004408CD004508CE0009258425A1004F
:100930000800B501B60134088400B53035078400DD
:1009400037080002031CA82C340884000014B60ADF
:10095000B40AB50A05303502031C9B2C3608080082
:10096000B400B501B601B701B801B901BA01340844
:10097000840000300018FF30B600BA30350784001C
:1009800050300002031CC62CFF30C72C0030B700CB
:10099000B0303507840005300007BA00BF30350796
:1009A00084003A080002031CD72CFF30D82C0030FA
:1009B000B80034088400800136083704380403196D
:1009C000E42C0014D00AB90A3808FF3A3705BA00F7
:1009D0003708FF3A360538053A040319F12C80141C
:1009E000D10A3708FF3A3805BA003608FF3A37050A
:1009F0003A04031D0015B40AB50A05303502031C7C
:100A0000B72C51085002D20003303902031C0034C5
:100A100001344A084D0203180E2D3C3EB4004B0829
:100A20004E020318152D3C3EB403B40803191D2DC6
:100A30003C3E03181F2DB40B182DCF000800FF30CB
:100A4000CF0008008400B4010530B500C7309F0511
:100A500034089F040430B6008001A0261F151F191A
:100A60002F2D1E08FF3AEA00043087268007B60BB8
:100A70002D2D0830B407840AB50B262D0800071168
:100A8000003E031D071508000915871007141E30C6
:100A9000E326071009110800091507108714871AA3
:100AA0004F2D8710091108008810891409151C3072
:100AB000B4000630E708031D742D08100914871FC1
:100AC000822DC92689108814871F822DC9260910F6
:100AD0000814871F822DC92688108914871F822D2C
:100AE000C926B40B5D2D822D89108814C9260810E3
:100AF0000914C92688108914C92609100814C926A2
:100B0000B40B742D091108006908EA000630872625
:100B1000EA0080309426103EB4006908EA000630EE
:100B200087266A08EA001030942634078317840069
:100B30004F088000840A460E47078000840A480850
:100B40008000840A49088000840A4A088000840AD8
:100B50004B088000840A0408B4005330B5001430F8
:100B6000B600350884008313000EB70034088400F3
:100B7000831737088000B50AB6030319CD2D350851
:100B8000840083130008B7003408840083173708F3
:100B90008007B50AB40AB60BB12D6908B400E90A9A
:100BA0000C306902031C0C3EE9000C306802031C87
:100BB000E80A340883130800B500D001D101EA0027
:100BC00006308726EA0080309426103EB4003508AF
:100BD000EA00063087266A08EA00103094263407B7
:100BE000831784000008CF00840A000E0F39C60066
:100BF00000080F39C700840A0008C800840A0008EA
:100C0000C900840A0008CA00840A0008CB00840ACC
:100C10000408B4005330B5001430B6003408840022
:100C20008317000E0F39B700350884008313370887
:100C300080000018D00A8018D10AB50AB60303193B
:100C4000342E34088400831700080F39B7003508A4
:100C500084008313370880000018D00A8018D10A56
:100C6000B50AB40AB60B0E2E4908CC004A08CD00CE
:100C70004B08CE004F08EA003C308726CD074F08CE
:100C8000EA003C3087266A08CE073C304E02031C3F
:100C90004C2E3C30CE02CD0A3C304D02031C592E66
:100CA0003C30CD02CC0A18304C02031C592E1830AF
:100CB000CC0251085002D200831308008400800A3D
:100CC0003C300002031C080080018403800A3C3091
:100CD0000002031C080080018403800A183000020F
:100CE000031C0800800108008400800A1F300002F5
:100CF000031C08008001800A8403800A0D30000272
:100D0000031C08008001800A8403800A0800003E5A
:100D1000031403190800EB01EA02031C912EEB0AED
:100D20008C2EEA076B0808000310EB000030EA087D
:100D3000031908006B0703189F2EEA0B9A2E080070
:100D400003138316A0002630A100A10BA52E2008B6
:100D500083120000080003138316A2006030A30072
:100D6000000003138316A0002730A100A10BB62EAC
:100D700020088312000003138316A30BB02E023049
:100D8000A300A30BC12E0000000022088312000064
:100D9000080003138316A500AB2603138316A50BC7
:100DA000CC2E83120000080003138316A200F93032
:100DB000A300FA30A1000000A10BDB2EA30BD92E5B
:100DC00022088312080003138316A500D4260313F8
:100DD0008316A50BE62E831200000800031383166A
:100DE000A400C730A500AB2603138316A50BF32E72
:100DF0004630A500A02603138316A50BFA2E24085F
:100E000083120000080083128815AB26AB26AB26A0
:100E1000AB2608113030F03988040F388805A02639
:100E20008811A0268815AB26A0268811A026881533
:100E3000A026A026A0268811A02688152030F039EB
:100E400088040F388805A0268811A0268815283028
:100E500044270F3044270630442730270815080060
:100E60000811013044272830F500A026F50B352F56
:100E7000081508000811C03044270815080008119B
:100E8000D030442708150800F500F03988040F38E1
:100E90008805A0268811A0268815750EF0398804CB
:0E0EA0000F388805A0268811A02688150800A6
:02400E00723FFF
:00000001FF
