:020000040000FA
:1000000001288B0183168501F23086008701880163
:10001000831285018601870188016E20F3010301A7
:1000200073083720003A031918289220F30A102881
:100030005820F301030173083720003A03192328DD
:100040009220F30A1B28CB3083203F3092205B2084
:10005000F301030173084120003A0319322892206A
:10006000F30A2A28183083205E2032283628820797
:10007000543465347334743469346E3467342134E1
:100080000034820720342034203420342034543487
:1000900065347334743469346E34673420345434C2
:1000A00077346F342034203420342034203400342A
:1000B000C030832008000130832008008830F00021
:1000C000BD30F1000330F200F00B6728F10B692816
:1000D000F20B64286B2800000000080083128815CA
:1000E000A320A320A320333083203230832020306C
:1000F00083200C30832006308320013083200800C9
:100100000130832008000811F700F03988008815B5
:10011000A3208811770EF03988008815A320881154
:10012000A32008000815F8007808F039043E88007C
:100130008815A3208811780EF039043E88008815B0
:10014000A320881108001430F600FF30F500F50BED
:08015000A728F60BA528080002
:04015800003400343B
:02400E00F23F7F
:00000001FF
