:020000040000FA
:1000000001288B0183168501F23086008701880163
:10001000831285018601870188016420F3010301B1
:1000200073083720003A031918288820F30A10288B
:100030004E20F301030173083720003A03192328E7
:100040008820F30A1B28CB3079203F3088205120AC
:10005000F301030173084120003A03193228882074
:10006000F30A2A28183079205420322836288207AB
:10007000543465347334743469346E3467342134E1
:1000800000348207543465347334743469346E3404
:1000900067342034543477346F340034C0307920DE
:1000A00008000130792008008830F000BD30F100F0
:1000B0000330F200F00B5D28F10B5F28F20B5A2899
:1000C00061280000000008008312881599209920FB
:1000D00099203330792032307920283079200C3043
:1000E000792006307920013079200800013079200C
:1000F00008000811F700F039880088159920881148
:10010000770EF03988008815992088119920080009
:100110000815F8007808F039043E88008815992001
:100120008811780EF039043E8800881599208811CE
:1001300008001430F600FF30F500F50B9D28F60B93
:040140009B280800F0
:04014400003400344F
:02400E00723FFF
:00000001FF
