:020000040000FA
:1000000001288B0183168501F23086008701880163
:10001000831285018601870188012820861C0E280D
:10002000060E0F3917204020861814280E28820744
:100030003134323433344134343435343634423468
:1000400037343834393443342A3430342334443464
:10005000831288155C205C205C200811303057200A
:100060004C205C204C204C20203057204C20283045
:1000700040200F304020063040204720081508005F
:10008000F00057204C20700E57204C20080008111B
:10009000013040205C200800FF30F100F10B4E28B9
:1000A0008811FF30F100F10B532888150800F03952
:1000B00088040F38880508001430F200FF30F10082
:0A00C000F10B6028F20B5E28080027
:0400CA0000340034CA
:02400E00723FFF
:00000001FF
