:020000040000FA
:020000000029D5
:040002000034003492
:100200008B018316850186018701880107168715F2
:10021000831285018601870188014422831203131A
:10022000F40183120313F301562283120313F30A1A
:10023000562283120313F30A562283120313F30A7E
:10024000562283120313F30A562283120313F30A6E
:10025000562283120313F30A5622062201301B2270
:1002600032302A2230302A22063083120313F30060
:100270009122831203137508E02277082A22780856
:100280002A222F302A22053083120313F3009122F1
:10029000831203137508E02277082A2278082A229D
:1002A0002F302A22043083120313F3009122831289
:1002B00003137508E02277082A2278082A22C03022
:1002C0001B22023083120313F300912283120313C3
:1002D0007508E02277082A2278082A223A302A2252
:1002E000013083120313F300912283120313750864
:1002F000E02277082A2278082A223A302A2200307F
:1003000083120313F3009122831203137508E02272
:1003100077082A2278082A22F6212E29831203132D
:10032000F40183120313F301562283120313F30A19
:10033000562283120313F30A562283120313F30A7D
:10034000562283120313F30A562283120313F30A6D
:10035000562283120313F30A56228312031300302A
:10036000F300831203138030F40056228312031328
:100370000630F300831203131030F4005622831268
:1003800003130530F300831203130430F4005622E4
:10039000831203130430F300831203130630F400B6
:1003A0005622831203130330F30083120313023027
:1003B000F4005622831203130230F3008312031356
:1003C0001230F4005622831203130130F30083121B
:1003D00003133030F4005622831203130030F3006D
:1003E000831203130030F400562208001030F50089
:1003F0007A30F6000630F700F50BFF29F60B012ADC
:0C040000F70BFC29032A00000000080094
:04040C0083128815BA
:100410003B223B223B2233301B2232301B2228302E
:100420001B220C301B2206301B2201301B2208002D
:1004300001301B2208000811F300F03988008815EC
:100440003B228811730EF039880088153B228811F1
:100450003B2208000815F4007408F039043E8800B7
:1004600088153B228811740EF039043E88008815E7
:100470003B22881108001430F200FF30F100F10B2C
:100480003F2AF20B3D2A080083160313940118300B
:1004900083160313930008308312031394009416F9
:1004A0008316031311151119532A08008316031319
:1004B00011141118592AD030831203139300831694
:1004C00003131419612A8316031383160313111BD4
:1004D0008A2A83120313730883120313930083166B
:1004E00003131419712A8316031383160313111BA4
:1004F0008A2A83120313740883120313930083164A
:1005000003131419812A8316031383160313111B73
:100510008A2A8B2A000083160313111511198E2ABB
:1005200008008316031311141118942AD030831273
:10053000031393008316031314199C2A83160313C1
:1005400083160313111BD92A831203137308831212
:1005500003139300831603131419AC2A8316031391
:1005600083160313111BD92A8316031391149118B0
:10057000B72AD1308312031393008316031314197F
:10058000BF2A8316031383160313111BD92A83165C
:10059000031391159119CA2A8312031313088312A6
:1005A0000313F5008316031391161116111AD62A98
:1005B000DA2A00008316031311151119DD2A080029
:1005C00083120313F600760E0F39303EF7008312C4
:1005D000031376080F39303EF80008008316031322
:1005E00011141118F12A103083120313930083168B
:1005F00003131419F92A8316031383160313111B0B
:10060000122B8312031370088312031393008316B3
:1006100003131419092B8316031383160313111BD9
:10062000122B122B8316031311151119152B080009
:1006300083160313111411181B2B1130831203138B
:100640009300831603131419232B831603138316A5
:100650000313111B3C2B83160313911591192E2B99
:1006600083120313130883120313F000831603137A
:1006700091161116111A3A2B83160313111511191D
:040680003F2B080004
:02400E00723FFF
:00000001FF
